:04000000D5EF1FF029
:1000080000C019F001C018F00BC017F00CC016F0B2
:100018000DC015F0F5CF1DF0F8CF1AF0F7CF1BF093
:10002800F6CF1CF0F2A21BD0F292404A412A9B0E56
:100038000001AA6F000EAB6F6E0EAC6F410EAD6F74
:10004800000EAE6F40C0AFF041C0B0F04BEC1FF0F7
:100058009B0EAA6F000EAB6FBAEC1FF002D1F0A096
:1000680014D0F090847084B008D00001310EAA6FCB
:10007800000EAB6FBAEC1FF007D00001390EAA6F63
:10008800000EAB6FBAEC1FF0ECD09EAAEAD09E9A95
:1000980070EC1FF000C07FF000501F180DE11E6AC1
:1000A8007FC07EF0910EE16E000EE26E1E50E126DA
:1000B800D8B0E22A7FC0E6FF00017F5120180CE18A
:1000C8007FC080F0910EE16E000EE26E1E50E126B8
:1000D800D8B0E22A7FC0E6FF7E511F1809E180519F
:1000E800201806E1010E306E1E6A7E6B806B0FD001
:1000F800910EE16E000EE26E1E50E126D8B0E22AA3
:100108007FC0E6FF1E2A1E500A08D8A01E6A30507B
:10011800010AD8A4A6D0910EAA6F000EAB6F210ECB
:10012800AC6F000EAD6F79EC1FF000C0B5F001C0E8
:10013800B6F0210E0001B76F000EB86F050EB96F4B
:10014800A1EC0EF0000E011802E1000E001809E102
:100158008D82270E0001AA6F000EAB6FBAEC1FF05C
:100168007CD00001910EAA6F000EAB6F420EAC6FEF
:10017800000EAD6F79EC1FF000C0B5F001C0B6F00D
:10018800420E0001B76F000EB86F050EB96FA1ECF3
:100198000EF0000E011802E1000E001809E18D9220
:1001A800660E0001AA6F000EAB6FBAEC1FF055D0B7
:1001B8000001910EAA6F000EAB6F6F0EAC6F000EB0
:1001C800AD6F79EC1FF000C0B5F001C0B6F06F0E4E
:1001D8000001B76F000EB86F050EB96FA1EC0EF0F5
:1001E800000E011802E1000E001809E18D80750E5D
:1001F8000001AA6F000EAB6FBAEC1FF02ED0000101
:10020800910EAA6F000EAB6F600EAC6F000EAD6F53
:1002180079EC1FF000C0B5F001C0B6F0600E000127
:10022800B76F000EB86F050EB96FA1EC0EF0000E97
:10023800011802E1000E001809E18D90480E000136
:10024800AA6F000EAB6FBAEC1FF007D00001580E72
:10025800AA6F000EAB6FBAEC1FF0306A1E6A07EC8B
:100268001FF01DC0F5FF1AC0F8FF1BC0F7FF1CC028
:10027800F6FF19C000F018C001F017C00BF016C047
:080288000CF015C00DF011008F
:080290000AAE029E000E1200EE
:100298000B840BAE57EF01F0010E036E026A016A80
:0A02A800006A0A360232FF0E12004F
:0E02B200026A016A006A086A036A000E1200FE
:1002C0000B820BAE6AEF01F00368026801680068F8
:0802D0000A360232FF0E120093
:1002D8000CB0AEEF01F00CA254EF02F00E6A000E63
:1002E8000264C5EF01F0F00E0214D8A490EF01F0FB
:1002F800023A01380F0B02260138F00B016E003864
:100308000F0B01260038F00B006E08380F0B002683
:100318000838F00B086E0E84D89002BEA9EF01F0E1
:1003280008360036013602360E2A02BEA9EF01F061
:1003380008360036013602360E2A02BEA9EF01F051
:1003480008360036013602360E2A0E5003644AEF8C
:1003580002F0035E0BBC08AE4FEF02F0D880800EAF
:1003680008640030000E002201220222D8A04FEFBC
:1003780002F0023201320032034A54EF02F04FEF2A
:1003880002F001C002F000C001F008C000F0086AE5
:10039800000E0E860264FCEF01F0F00E0214D8A4E1
:1003A800E4EF01F0023A01380F0B02260138F00B96
:1003B800016E00380F0B01260038F00B006E0E841A
:1003C800D89002BEA9EF01F00036013602360E2A97
:1003D80002BEA9EF01F00036013602360E2A02BE2F
:1003E800A9EF01F00036013602360E2AA9EF01F016
:1003F80001C002F000C001F0006A000E0E960E88DF
:10040800026429EF02F0F00E0214D8A414EF02F0EF
:10041800023A01380F0B02260138F00B016E0E84E8
:10042800D89002BEA9EF01F0013602360E2A02BEAC
:10043800A9EF01F0013602360E2A02BEA9EF01F03B
:10044800013602360E2AA9EF01F001C002F0016A56
:10045800000E0E86026459EF02F0F00E0214D8A4C2
:1004680038EF02F0023A0E84D89002BEA9EF01F0EC
:1004780002360E2A02BEA9EF01F002360E2A02BE8B
:10048800A9EF01F002360E2AA9EF01F0010E0C6E59
:10049800FFDE5CEF02F0020E0C6EF6DE5CEF02F09F
:1004A800040E0C6E09DF5CEF02F0080E0C6EFDDE28
:0204B800120030
:1004BA00086A080E0C6E003408360450085ED8B07C
:0E04CA0002D00826D89000360C2EF5D712006E
:0804D8000B6A0B86FF0E1200F7
:1004E0000B800BAE7CEF02F0026A0AAEFF0E026ECA
:0C04F000016E006E0A360232FF0E120090
:1004FC00086A096A000E0762036403EF03F00250F6
:10050C0006180A6E075003267E0ED8A094EF02F050
:10051C00035ED8B007EF03F098EF02F0035ED8A0AB
:10052C000BEF03F0028E068E02C00EF001C00BF032
:10053C0000C00DF000500402F4CF0CF00150050285
:10054C00F4CF00F0F3CF08F00402F3500C26F45073
:10055C000822000E00220D500502F3500C26F45018
:10056C000822000E002202500402F3500826F45018
:10057C00002202500502016A000E0122F3500026EF
:10058C00F45001220D500602F3500826F4500022BC
:10059C00026A000E012202220B500602F3500026C2
:1005AC00F4500122000E02220E500602F3500126D6
:1005BC00F450022202BEEBEF02F008360036013690
:1005CC0002360306D8B40BEF03F0FEEF02F0D8802E
:1005DC00800E08640030000E002201220222D8A0F6
:1005EC00FEEF02F0023201320032034A07EF03F051
:1005FC000AAE029E000E0DEF03F0010E54DE0DEF5D
:10060C0003F0020E57DE0DEF03F0040E3FDE120076
:10061C00025006180E6E086A096A0B6A03500764CA
:10062C0001EF04F006500A6E068E028E03500B6E1C
:10063C000750036E000E0B6451EF03F00B50075E76
:10064C00D8B4F2EF03F0070E0764C0EF03F0075EB7
:10065C0000C008F001C000F002C001F0026A074EB1
:10066C00F2EF03F0076495EF03F0075E00C008F0AB
:10067C0001C000F0016A074EF2EF03F0076473EF5C
:10068C0003F0075E00C008F0006A074EF2EF03F0BB
:10069C0007645AEF03F00AC002F005C001F004C071
:1006AC0000F0086A1BEF05F0030E076465EF03F01A
:1006BC00075E08380F0B086E074EF2EF03F0D89068
:1006CC000832074EF2EF03F0D8900832074EF2EFE3
:1006DC0003F0D8900832F2EF03F0030E076484EFB6
:1006EC0003F0075E08380F0B086E0038F00B082675
:1006FC0000380F0B006E074EF2EF03F0D89000326B
:10070C000832074EF2EF03F0D89000320832074E51
:10071C00F2EF03F0D89000320832F2EF03F0030E40
:10072C000764ACEF03F0075E08380F0B086E003857
:10073C00F00B082600380F0B006E0138F00B00266A
:10074C0001380F0B016E074EF2EF03F0D890013217
:10075C0000320832074EF2EF03F0D890013200322B
:10076C000832074EF2EF03F0D89001320032083213
:10077C00F2EF03F0030E0764DDEF03F0075E0838B9
:10078C000F0B086E0038F00B082600380F0B006EAC
:10079C000138F00B002601380F0B016E0238F00BFC
:1007AC00012602380F0B026E074EF2EF03F0D890C1
:1007BC000232013200320832074EF2EF03F0D890C9
:1007CC000232013200320832074EF2EF03F0D890B9
:1007DC000232013200320832096A000E0EAEE6EF28
:1007EC0004F0081E001E011E021E082A002201220F
:1007FC000222E6EF04F00750D8A407EF04F01BEF39
:10080C0005F0096A02C00AF0028E068E0750035CDE
:10081C00076ED8B4D9EF04F0070E0764A7EF04F005
:10082C00075E0450096E0550046E0650056E066A8C
:10083C00074ED9EF04F0070E07647CEF04F0075E57
:10084C000450096E0550046E056A074ED9EF04F08A
:10085C00070E07645AEF04F0075E0450096E046A31
:10086C00074ED9EF04F0070E076441EF04F00AC0FD
:10087C0002F01BEF05F0030E07644CEF04F0075E6B
:10088C0009380F0B096E074ED9EF04F0D8900932D6
:10089C00074ED9EF04F0D8900932074ED9EF04F087
:1008AC00D8900932D9EF04F0030E07646BEF04F013
:1008BC00075E09380F0B096E0438F00B0926043853
:1008CC000F0B046E074ED9EF04F0D89004320932A6
:1008DC00074ED9EF04F0D89004320932074ED9EF05
:1008EC0004F0D89004320932D9EF04F0030E0764F7
:1008FC0093EF04F0075E09380F0B096E0438F00B08
:10090C00092604380F0B046E0538F00B0426053845
:10091C000F0B056E074ED9EF04F0D8900532043258
:10092C000932074ED9EF04F0D8900532043209325F
:10093C00074ED9EF04F0D890053204320932D9EFC2
:10094C0004F0030E0764C4EF04F0075E09380F0BC4
:10095C00096E0438F00B092604380F0B046E0538A9
:10096C00F00B042605380F0B056E0638F00B052628
:10097C0006380F0B066E074ED9EF04F0D8900632EE
:10098C00053204320932074ED9EF04F0D890063202
:10099C00053204320932074ED9EF04F0D8900632F2
:1009AC00053204320932086A000E0EAEE6EF04F08E
:1009BC00091E041E051E061E092A042205220622F3
:1009CC00095008260450002205500122065002222C
:1009DC000EBEFDEF04F0D8A00CEF05F00232013290
:1009EC0000320832033E0CEF05F016EF05F0D8B0DC
:1009FC0011EF05F0000E081E001E011E021E082A33
:100A0C000022012202220A7E11EF05F0010E0C6E6B
:100A1C005DDC1DEF05F0020E0C6E58DC1DEF05F0D1
:100A2C00040E0C6E47DC1DEF05F0000E0C6E120070
:100A3C000134083609360450085E0550D8A0053C30
:100A4C00095E003601360F0E0C6E0134083609367D
:100A5C00045000A006D0085E0550D8A0053C095EE5
:100A6C0005D008260550D8B0053C092600360136BD
:100A7C000C2EEBD700B006D0045008260550D8B089
:080A8C00053C092600001200E0
:100A94000D6A086A0050D8B4000C04180A6E0ABE25
:100AA4000D1E0B6A04AE02D0041E042A00AE02D04E
:100AB400001E002A005004100A6E0ABE1FD0045003
:100AC400085E003600340836045008260036060E48
:100AD4000C6E00340836045000B0085E00A00826EE
:100AE40000360C2EF6D700A008260BB015D00DAE9C
:100AF400000C001E002A081E082A000C04AE09D0AF
:100B040000BE04D00050086E006AF1D7006A002AC3
:100B1400000C001E0B2AD3D7082A0450085CD8A462
:0E0B2400E6D7086A002A00AEE2D7FF0C1200E6
:100B32000050086E0150006E0250016E0350026EAA
:100B4200036A0B6A0C6A9E0E036E0A6A020E0C6E30
:060B52006CEC01F0120042
:100B58000B6A0A6A096A086A0E6A0334083604507E
:100B6800085E0550D8A0053C095E0650D8A0063C92
:100B78000A5E0750D8A0073C0B5EE86AD8A0010EB1
:100B88000E5E0336070E0C6E0334083609360A3635
:100B98000B360E36045003A012D0085E0550D8A0BC
:100BA800053C095E0650D8A0063C0A5E0750D8A04E
:100BB800073C0B5EE86AD8A0010E0E5E11D008262D
:100BC8000550D8B0053C09260650D8B0063C0A2680
:100BD8000750D8B0073C0B26E86AD8B0010E0E269D
:100BE80003360C2ED1D70234083609360A360B36AE
:100BF8000E36045003A012D0085E0550D8A0053C5C
:100C0800095E0650D8A0063C0A5E0750D8A0073CEB
:100C18000B5EE86AD8A0010E0E5E11D008260550BA
:100C2800D8B0053C09260650D8B0063C0A2607501D
:100C3800D8B0073C0B26E86AD8B0010E0E2602365B
:100C4800070E0C6E0234083609360A360B360E3695
:100C5800045002A012D0085E0550D8A0053C095ED9
:100C68000650D8A0063C0A5E0750D8A0073C0B5E89
:100C7800E86AD8A0010E0E5E11D008260550D8B03B
:100C8800053C09260650D8B0063C0A260750D8B0BD
:100C9800073C0B26E86AD8B0010E0E2602360C2E49
:100CA800D1D70134083609360A360B360E360450C9
:100CB80002A012D0085E0550D8A0053C095E065077
:100CC800D8A0063C0A5E0750D8A0073C0B5EE86A2D
:100CD800D8A0010E0E5E11D008260550D8B0053CEC
:100CE80009260650D8B0063C0A260750D8B0073C5B
:100CF8000B26E86AD8B0010E0E260136070E0C6ED8
:100D08000134083609360A360B360E36045001A06F
:100D180012D0085E0550D8A0053C095E0650D8A040
:100D2800063C0A5E0750D8A0073C0B5EE86AD8A0CC
:100D3800010E0E5E11D008260550D8B0053C0926D4
:100D48000650D8B0063C0A260750D8B0073C0B26F8
:100D5800E86AD8B0010E0E2601360C2ED1D7003421
:100D6800083609360A360B360E36045001A012D062
:100D7800085E0550D8A0053C095E0650D8A0063C80
:100D88000A5E0750D8A0073C0B5EE86AD8A0010E9F
:100D98000E5E11D008260550D8B0053C092606502D
:100DA800D8B0063C0A260750D8B0073C0B26E86A9C
:100DB800D8B0010E0E260036070E0C6E0034083629
:100DC80009360A360B360E36045000A012D0085EDB
:100DD8000550D8A0053C095E0650D8A0063C0A5E1E
:100DE8000750D8A0073C0B5EE86AD8A0010E0E5E3B
:100DF80011D008260550D8B0053C09260650D8B0B1
:100E0800063C0A260750D8B0073C0B26E86AD8B03B
:100E1800010E0E2600360C2ED1D700B00ED004508D
:100E280008260550D8B0053C09260650D8B0063C1F
:0C0E38000A260750D8B0073C0B26120019
:100E4400800E0001DD19006E800E000A005CD8B02F
:100E540067D1DD510008016E01C0DDF0800E01187C
:100E6400006E800E6E0A005CD8A0BCD0640E046EC6
:100E7400DDC000F00DDE120E0024056E000E00BE73
:100E8400FF0E066E000E062205C000F006C001F03B
:100E9400000E06BEFF0E026E036E00360090013691
:100EA4000236033600360090013602360336A00EB1
:100EB4000024F66E400E0120F76E000E0220F86E3C
:100EC4000900F5CFDEF00900F5CFDFF00900F5CF1A
:100ED400E0F00900F5CFE1F0640E046EDDC000F02F
:100EE400D7DD08C000F00A0E046ED2DD090E00241E
:100EF400056E000E00BEFF0E066E000E062205C033
:100F040000F006C001F0000E06BEFF0E026E036E76
:100F14000036009001360236033600360090013662
:100F240002360336A00E0024F66E400E0120F76E42
:100F3400000E0220F86E0900F5CF00F00900F5CF8D
:100F440001F00900F5CF02F00900F5CF03F0DEC08F
:100F540004F0DFC005F0E0C006F0E1C007F07EEC6D
:100F640002F000C0DEF001C0DFF002C0E0F003C018
:100F7400E1F00A0E046EDDC000F08ADD08C000F066
:100F840000C001F0000E00BEFF0E026E036E046E80
:100F940001360190023603360436013601900236DA
:100FA40003360436A00E0124F66E400E0220F76EBE
:100FB400000E0320F86E0900F5CF00F00900F5CF0C
:100FC40001F00900F5CF02F00900F5CF03F0DEC00F
:100FD40004F0DFC005F0E0C006F0E1C007F07EECED
:100FE40002F001D2800E0A0A006E800EDD19005C48
:100FF4006FE20A0E046EDDC000F04ADD090E002423
:10100400056E000E00BEFF0E066E000E062205C021
:1010140000F006C001F0000E06BEFF0E026E036E65
:101024000036009001360236033600360090013651
:1010340002360336A00E0024F66E400E0120F76E31
:10104400000E0220F86E0900F5CFDEF00900F5CF9E
:10105400DFF00900F5CFE0F00900F5CFE1F00A0E6A
:10106400046EDDC000F014DD08C000F000C001F023
:10107400000E00BEFF0E026E036E046E0136019078
:10108400023603360436013601900236033604363E
:10109400A00E0124F66E400E0220F76E000E03200F
:1010A400F86E0900F5CF00F00900F5CF01F0090052
:1010B400F5CF02F00900F5CF03F0DEC004F0DFC085
:1010C40005F0E0C006F0E1C007F07EEC02F08BD141
:1010D400DDC000F0000EDDBFFF0E016E026E036E78
:1010E4000036009001360236033600360090013691
:1010F40002360336A00E0024F66E400E0120F76E71
:10110400000E0220F86E0900F5CF00F00900F5CFBB
:1011140001F00900F5CF02F00900F5CF03F063D127
:10112400800EDD19006E800E6E0A005CD8A0BCD063
:10113400640E046EDDC000F0ABDC120E0024056EFC
:10114400000E00BEFF0E066E000E062205C000F063
:1011540006C001F0000E06BEFF0E026E036E0036DE
:10116400009001360236033600360090013602360E
:1011740003366C0E0024F66E400E0120F76E000E4E
:101184000220F86E0900F5CFDEF00900F5CFDFF09C
:101194000900F5CFE0F00900F5CFE1F0640E046E2C
:1011A400DDC000F075DC08C000F00A0E046E70DCCF
:1011B400090E0024056E000E00BEFF0E066E000E22
:1011C400062205C000F006C001F0000E06BEFF0EA8
:1011D400026E036E00360090013602360336003686
:1011E40000900136023603366C0E0024F66E400E73
:1011F4000120F76E000E0220F86E0900F5CF00F012
:101204000900F5CF01F00900F5CF02F00900F5CF90
:1012140003F0DEC004F0DFC005F0E0C006F0E1C07A
:1012240007F07EEC02F000C0DEF001C0DFF002C087
:10123400E0F003C0E1F00A0E046EDDC000F028DC2B
:1012440008C000F000C001F0000E00BEFF0E026EE8
:10125400036E046E013601900236033604360136FD
:1012640001900236033604366C0E0124F66E400EED
:101274000220F76E000E0320F86E0900F5CF00F08F
:101284000900F5CF01F00900F5CF02F00900F5CF10
:1012940003F0DEC004F0DFC005F0E0C006F0E1C0FA
:1012A40007F07EEC02F09FD0800E0A0A006E800EDA
:1012B400DD19005C71E20A0E046EDDC000F04AEC38
:1012C40005F0090E0024056E000E00BEFF0E066E2A
:1012D400000E062205C000F006C001F0000E06BE96
:1012E400FF0E026E036E003600900136023603369E
:1012F400003600900136023603366C0E0024F66E7A
:10130400400E0120F76E000E0220F86E0900F5CFA2
:10131400DEF00900F5CFDFF00900F5CFE0F00900B9
:10132400F5CFE1F00A0E046EDDC000F04AEC05F0E2
:1013340008C000F000C001F0000E00BEFF0E026EF7
:10134400036E046E0136019002360336043601360C
:1013540001900236033604366C0E0124F66E400EFC
:101364000220F76E000E0320F86E0900F5CF00F09E
:101374000900F5CF01F00900F5CF02F00900F5CF1F
:1013840003F0DEC004F0DFC005F0E0C006F0E1C009
:1013940007F07EEC02F027D0DDC000F0000EDDBFC8
:1013A400FF0E016E026E036E0036009001360236A7
:1013B4000336003600900136023603366C0E0024E4
:1013C400F66E400E0120F76E000E0220F86E090042
:1013D400F5CF00F00900F5CF01F00900F5CF02F0D8
:0813E4000900F5CF03F012002F
:0813EC00067E0EEC03F0120076
:1013F4000B6A0C6A086A0350D8B47EEF0AF002C084
:101404000AF0028E9E0E035E03AE6EEF0AF0036CCA
:10141400080E035CD8A03BEF0AF0036E083600C048
:1014240008F001C000F002C001F0026A080E035C7B
:10143400D8A03BEF0AF0036E083600C008F001C0E4
:1014440000F0016A080E035CD8A03BEF0AF0036EBB
:10145400083600C008F0006A080E035CD8A03BEF11
:101464000AF0036E0836086A0350D8A4D89047EFF0
:101474000AF00350D8B447EF0AF0D8900232013290
:1014840000320832032E3FEF0AF00BBC08A058EFDD
:101494000AF0D8A058EF0AF0082AD8B4002AD8B421
:1014A400012AD8B4022A02BE82EF0AF00AAE7EEF05
:1014B4000AF0021E011E001E081E082AD8B4002AC3
:1014C400D8B4012AD8B4022A7EEF0AF0026A016A6B
:1014D400006A086A7EEF0AF00B800BAE89EF0AF00F
:1014E400026A0AAE89EF0AF0026E016E006E086E9F
:1014F4000A36023289EF0AF00C6A000E8AEF0AF00B
:10150400010E0C6E000E70EC02F08AEF0AF0FF0E72
:101514000250036E0150026E0050016E0850006EBE
:021524001200B3
:101526006E0E0001DD5DD8A0CAD0640E046EDDC06B
:1015360000F05DEC02F0120E0024056E066A000E45
:10154600062205C000F006C001F0000E06BEFF0E22
:10155600026E036E00360090013602360336003600
:101566000090013602360336A00E0024F66E400EB9
:101576000120F76E000E0220F86E0900F5CF00F08C
:101586000900F5CF01F00900F5CF02F00900F5CF0B
:1015960003F0000E046E000E056E000E066E7E0E43
:1015A600076E7EEC02F000C0DEF001C0DFF002C084
:1015B600E0F003C0E1F0640E046EDDC000F05DEC07
:1015C60002F008C000F00A0E046E5DEC02F0090E8F
:1015D6000024056E066A000E062205C000F006C04D
:1015E60001F0000E06BEFF0E026E036E003600907E
:1015F60001360236033600360090013602360336CF
:10160600A00E0024F66E400E0120F76E000E02209A
:10161600F86E0900F5CF00F00900F5CF01F00900DA
:10162600F5CF02F00900F5CF03F0DEC004F0DFC00D
:1016360005F0E0C006F0E1C007F07EEC02F000C065
:10164600DEF001C0DFF002C0E0F003C0E1F00A0EF8
:10165600046EDDC000F05DEC02F008C000F000C0D2
:1016660001F0000E026E036E046E01360190023622
:101676000336043601360190023603360436A00ED0
:101686000124F66E400E0220F76E000E0320F86E5F
:101696000900F5CF00F00900F5CF01F00900F5CFFC
:1016A60002F00900F5CF03F0DEC004F0DFC005F05C
:1016B600E0C006F0E1C007F07EEC02F0B1D0DD51EB
:1016C6000A08D8B07ED00A0E046EDDC000F05DECCC
:1016D60002F0090E0024056E066A000E062205C0F9
:1016E60000F006C001F0000E06BEFF0E026E036E8D
:1016F6000036009001360236033600360090013679
:1017060002360336A00E0024F66E400E0120F76E58
:10171600000E0220F86E0900F5CF00F00900F5CFA3
:1017260001F00900F5CF02F00900F5CF03F0000E35
:10173600046E000E056E000E066E7E0E076E7EECC3
:1017460002F000C0DEF001C0DFF002C0E0F003C02E
:10175600E1F00A0E046EDDC000F05DEC02F008C098
:1017660000F000C001F0000E026E036E046E01363A
:1017760001900236033604360136019002360336EE
:101786000436A00E0124F66E400E0220F76E000EFF
:101796000320F86E0900F5CF00F00900F5CF01F03F
:1017A6000900F5CF02F00900F5CF03F0DEC004F022
:1017B600DFC005F0E0C006F0E1C007F07EEC02F005
:1017C6002FD0DDC000F0000E016E026E036E0036F3
:1017D6000090013602360336003600900136023696
:1017E6000336A00E0024F66E400E0120F76E000EA2
:1017F6000220F86E0900F5CF00F00900F5CF01F0E0
:101806000900F5CF02F00900F5CF03F0000E046ED3
:10181600000E056E000E066E7E0E076E7EEC02F062
:021826001200AE
:101828000450000A08E10550000A05E1FF0E006EA9
:101838007F0E016E58D00D6A096A086A01500010BF
:10184800D8B4000C015005180A6E0ABE0D1E0B6AAA
:1018580005AE05D0041E051E042AD8B4052A01AE1B
:1018680005D0001E011E002AD8B4012A0150051017
:101878000A6E0ABE10D01EEC05F00BB020D00DAEDB
:10188800000C001E011E002AD8B4012A081E091ED9
:10189800082AD8B4092A000C05AE0DD001BE07D01D
:1018A8000150096E0050086E016A006AE8D7016AA3
:1018B800006A002A000C011E001E0B2ADDD7082A28
:1018C800D8B4092A0450085CD8A4D9D70550095CB3
:1018D800D8A4D5D7096A086A002AD8B4012A01AE63
:0818E800CED70000FF0C120036
:1018F0000450000A12E10550000A0FE10650000AE8
:101900000CE10750000A09E1FF0E006EFF0E016EA8
:101910007F0E026EFF0E036EA8D0086A096A075098
:10192000D8B423EF0DF00350D8B428EF0DF00250D7
:1019300006180A6E028E068E0E6A02C008F001C0FA
:101940000CF000C00DF004500D5E0550D8A0053C11
:101950000C5E0650D8A0063C085E086A0C6A0D6A48
:10196000D8A0BAEF0CF0D89002320132003208321F
:10197000010E0E6E0750035ED8A0C7EF0CF07E0E6E
:101980000E240326D8B02DEF0DF0CDEF0CF07E0E17
:101990000E240326D8A032EF0DF0180E0B6E0D3674
:1019A0000C3608360036013602360E360450005E1C
:1019B0000550D8A0053C015E0650D8A0063C025E4A
:1019C00006340E120EA0E8EF0CF00D80F3EF0CF0D1
:1019D000045000260550D8B0053C01260650D8B06A
:1019E000062802260D900B2ECFEF0CF019EF0DF00C
:1019F000D8900036013602360E360450005E05508F
:101A0000D8A0053C015E0650D8A0063C025E063414
:101A10000E10010B0D26D8B00C2AD8B4082AD8A471
:101A200019EF0DF008320C320D32032AD8B42DEF25
:101A30000DF00AAE089E0850026E0C50016E0D505B
:101A4000006E35EF0DF0010E6CEC02F035EF0DF08D
:101A5000020E59EC01F035EF0DF0040E60EC01F0D0
:0C1A600035EF0DF0080E4CEC01F0120008
:101A6C0003500718D8A44AEF0DF002500618D8A45A
:101A7C004AEF0DF001500518D8A44AEF0DF00050B4
:0E1A8C000418D8B4D8841200D89412001200A6
:101A9A000001DD51390806E3300EDD5D03E3010E76
:081AAA00006E01D0006A120079
:101AB2000B6A0A6A096A00500402F4CF09F0F3CFF4
:101AC20008F001500502F4CF0BF0F3CF0AF00050FA
:101AD2000502F3500926F4500A22E86A0B2201504B
:101AE2000402F3500926F4500A22E86A0B2208C0C5
:101AF20000F009C001F00AC002F00BC003F01200AE
:101B02000A6A0350D8A40A800750D8A40A820A504D
:101B1200D8B4E4EF0DF0030AD8B49DEF0DF00AB08B
:101B220098EF0DF006AEE2EF0DF0E0EF0DF002AE31
:101B3200E0EF0DF0E2EF0DF00250800B0A6E029E14
:101B42000650800B069E0A18D8B4AEEF0DF00A506C
:101B5200D8B4E0EF0DF0E2EF0DF00750035CD8B41B
:101B6200B8EF0DF0D8A0D4EF0DF0DAEF0DF006507B
:101B7200025CD8B4C2EF0DF0D8A0D4EF0DF0DAEFCA
:101B82000DF00550015CD8B4CCEF0DF0D8A0D4EF25
:101B92000DF0DAEF0DF00450005CD8B4E4EF0DF074
:101BA200D8B0DAEF0DF00A52D8B4E2EF0DF0E0EF60
:101BB2000DF00A52D8B4E0EF0DF0E2EF0DF0D8804C
:0E1BC2001200D8901200D880D88412001200B1
:101BD0000B6A0C6A0A6A086A0350D8B470EF0EF0F8
:101BE000028E9E0E035E03BEFBEF0DF0D8B4FBEF3A
:101BF0000DF060EF0EF0036C080E035CD8A02DEF23
:101C00000EF0036E083600C008F001C000F002C0FC
:101C100001F0026A080E035CD8A02DEF0EF0036EEF
:101C2000083600C008F001C000F0016A080E035C2D
:101C3000D8A02DEF0EF0036E083600C008F0006A41
:101C4000080E035CD8A02DEF0EF0036E0836086A6C
:101C50000350D8A4D89039EF0EF00350D8B439EF20
:101C60000EF0D8900232013200320832032E31EFEA
:101C70000EF00BBC08A04AEF0EF0D8A04AEF0EF011
:101C8000082AD8B4002AD8B4012AD8B4022A02BE3D
:101C900074EF0EF00AAE70EF0EF0021E011E001E71
:101CA000081E082AD8B4002AD8B4012AD8B4022AB7
:101CB00070EF0EF0026A016A006A086A70EF0EF0B7
:101CC0000B800BAE7AEF0EF0026A0AAE7AEF0EF0DE
:101CD000026E016E006E086E0A3602327AEF0EF066
:101CE000000E0C6A7BEF0EF0010E0C6E70EC02F031
:101CF0007BEF0EF0FF0E0250036E0150026E00509B
:081D0000016E0850006E120094
:101D0800B5C002F0B6C003F002C000F003C001F095
:101D1800024A032A00C0E9FF01C0EAFFEE5201E0CF
:101D2800F3D70001B551025C006EB6510358016E3D
:0A1D3800010E005E000E015A1200B9
:101D4200B9C000F00001B907005228E0B5C0E9FFB0
:101D5200B6C0EAFFEE50000A0CE0B5C0E9FFB6C01B
:101D6200EAFFB7C0D9FFB8C0DAFFEE50DE1801E1D2
:101D72000FD0B5C0E9FFB6C0EAFFB7C0D9FFB8C0FF
:101D8200DAFFDE50EE5C006E016A000E015A08D0E6
:101D92000001B54BB62BB74BB82BD2D7006A016AFC
:021DA20012002D
:101DA400B5C0E9FFB6C0EAFFEE500001B71905E17E
:101DB400B5C000F0B6C001F010D0B5C000F0B6C098
:101DC40001F0B54BB62B00C0E9FF01C0EAFFEECF2E
:0C1DD40000F00052E5E1006A016A120014
:0E1DE000ACB202D00000FCD7B5C0ADFF1200BF
:101DEE000001D56BD66BC96BCA6BB7C000F0B8C01B
:101DFE0001F0B9C002F0010EB727000EB823B923C7
:101E0E0000C0F6FF01C0F7FF02C0F8FF0900F5CFD2
:101E1E0000F000C0C6F00052D8B402EF1FF0C65159
:101E2E00250A0BE0B5C0E1FFB6C0E2FFC6C0E6FF73
:101E3E00B54BB62BD54BD62BD8D7C76BC86BC96B4A
:101E4E00CA6B23D0C987010EB727000EB823B9235A
:101E5E0059D0C981010EB727000EB823B92352D02D
:101E6E00C983010EB727000EB823B9234BD0CA87FA
:101E7E00010EB727000EB823B92344D0C985010E31
:101E8E00B727000EB823B9233DD0B7C0F6FFB8C0B0
:101E9E00F7FFB9C0F8FF0900F5CF01F001502D0A88
:101EAE00D1E0B7C0F6FFB8C0F7FFB9C0F8FF090020
:101EBE00F5CF01F00150200ACCE0B7C0F6FFB8C054
:101ECE00F7FFB9C0F8FF0900F5CF01F001502B0A5A
:101EDE00C7E0B7C0F6FFB8C0F7FFB9C0F8FF0900FA
:101EEE00F5CF01F00150230AC2E0B7C0F6FFB8C02B
:101EFE00F7FFB9C0F8FF0900F5CF01F00150300A25
:101F0E00BDE001D09ED7C9A301D0C991C9A701D008
:101F1E00C995B7C0F6FFB8C0F7FFB9C0F8FF090002
:101F2E00F5CF00F0000E016E00C0DDF0AFDD005207
:101F3E0034E0C76BC86BC7C000F0C8C001F00A0E12
:101F4E00046E000E056EAEDDB7C0F6FFB8C0F7FF2B
:101F5E00B9C0F8FF0900F5CF02F002500024C76F98
:101F6E00000E0120C86F300EC75F000EC85B010E59
:101F7E00B727000EB823B923B7C0F6FFB8C0F7FFD6
:101F8E00B9C0F8FF0900F5CF00F0000E016E00C0D9
:101F9E00DDF07CDD0052CFE133D0B7C0F6FFB8C024
:101FAE00F7FFB9C0F8FF0900F5CF01F001502A0A7A
:101FBE0027E1BAC0E9FFBBC0EAFFEECF00F0EECFDB
:101FCE0001F000C0E9FF01C0EAFFEECFC7F0EECF8F
:101FDE00C8F0BAC0E9FFBBC0EAFF020EEE24006EE5
:101FEE00000EEE20016EBAC0E1FFBBC0E2FF00C0E2
:101FFE00E6FF01C0E6FF010EB727000EB823B92396
:10200E00B7C0F6FFB8C0F7FFB9C0F8FF0900F5CFAB
:10201E0001F001502E0A6EE1010EB727000EB82313
:10202E00B923B7C0F6FFB8C0F7FFB9C0F8FF090073
:10203E00F5CF01F001502A0A28E1BAC0E9FFBBC072
:10204E00EAFFEECF00F0EECF01F000C0E9FF01C0D5
:10205E00EAFFEECFC4F0EECFC5F0BAC0E9FFBBC0C9
:10206E00EAFF020EEE24006E000EEE20016EBAC0E4
:10207E00E1FFBBC0E2FF00C0E6FF01C0E6FF010EBC
:10208E00B727000EB823B92334D0C46BC56BB7C0C5
:10209E00F6FFB8C0F7FFB9C0F8FF0900F5CF00F0A2
:1020AE00000E016E00C0DDF0F1DC005222E0C4C073
:1020BE0000F0C5C001F00A0E046E000E056EF2DCD3
:1020CE00B7C0F6FFB8C0F7FFB9C0F8FF0900F5CFEB
:1020DE0002F002500024C46F000E0120C56F300EB6
:1020EE00C45F000EC55B010EB727000EB823B923DF
:1020FE00CED703D0C46BC56BCA89B7C000F0B8C0C9
:10210E0001F0B9C002F0010EB727000EB823B923B3
:10211E0000C0F6FF01C0F7FF02C0F8FF0900F5CFBF
:10212E00C6F0F9D0D5C000F0D6C001F006EF1FF012
:10213E00C989E3D7CA852ED1C98BCA812BD1CA834F
:10214E0029D1C98D27D126D1C98BC98F23D1BAC028
:10215E00E9FFBBC0EAFFEECF00F0EECF01F000C00A
:10216E00E9FF01C0EAFFEECFD1F0EECFD2F0BAC058
:10217E00E9FFBBC0EAFF020EEE24006E000EEE2059
:10218E00016EBAC0E1FFBBC0E2FF00C0E6FF01C0B6
:10219E00E6FF000ED21902E1000ED11904E1510E34
:1021AE00D16F000ED26FD36BD46BD351D125E96EA4
:1021BE00D451D221EA6EEE520BE0010ED325006E01
:1021CE00000ED421016E00C0D3F001C0D4F0EDD7C3
:1021DE00C451C5110AE0D451C55D02E1D351C45DAD
:1021EE0004E2C4C0D3F0C5C0D4F0C851D45D02E13E
:1021FE00C751D35D05E2D351C75FD451C85B02D03E
:10220E00C76BC86BC9B716D0C7C000F0C8C001F005
:10221E00010EC75F000EC85B005001100BE0B5C089
:10222E00E1FFB6C0E2FF200EE66EB54BB62BD54BE6
:10223E00D62BEAD7D3C002F0D4C003F0010ED35D83
:10224E00006E000ED459016E00C0D3F001C0D4F060
:10225E000250031019E0D1C0E9FFD2C0EAFFB5C0A9
:10226E00E1FFB6C0E2FFEECFE6FFB54BB62B010E97
:10227E00D125006E000ED221016E00C0D1F001C03A
:10228E00D2F0D54BD62BD6D7C9A716D0C7C000F0E3
:10229E00C8C001F0010EC75F000EC85B00500110F0
:1022AE000BE0B5C0E1FFB6C0E2FF200EE66EB54B07
:1022BE00B62BD54BD62BEAD798D5BAC0E9FFBBC003
:1022CE00EAFFEECF00F0EECF01F000C0E9FF01C053
:1022DE00EAFFEECFC6F0BAC0E9FFBBC0EAFF020EBE
:1022EE00EE24006E000EEE20016EBAC0E1FFBBC000
:1022FE00E2FF00C0E6FF01C0E6FFC60ED16F000E82
:10230E00D26F010ED36F000ED46F62D7C00EC913F9
:10231E00000ECA133FD0C651000AD8B403D7C65117
:10232E006C0AD8B405D7C6514C0AD8B401D7C651D9
:10233E00660AD8B4FFD6C651450AD8B4FDD6C651E2
:10234E00650AD8B4FAD6C651670AD8B4F8D6C651BB
:10235E006F0AD8B4F6D6C651640AD8B4F4D6C651AC
:10236E00690AD8B4F0D6C651700AD8B4EDD6C651A3
:10237E00580AD8B4E9D6C651780AD8B4E6D6C651AA
:10238E00730AD8B4E4D6C651630A97E0C651750AEB
:10239E00BDE0B3D7000EC915006ECA51070B016E12
:1023AE0000500110D8B4A9EF1AF0CAA904D0060E35
:1023BE00C46F000EC56FBAC0E9FFBBC0EAFFEECF17
:1023CE0000F0EECF01F000C0E9FF01C0EAFFEECF52
:1023DE00CBF0EECFCCF0EECFCDF0EECFCEF0BAC04C
:1023EE00E9FFBBC0EAFF040EEE24006E000EEE20E5
:1023FE00016EBAC0E1FFBBC0E2FF00C0E6FF01C044
:10240E00E6FF046A056A066A076ACBC000F0CCC014
:10241E0001F0CDC002F0CEC003F081EC0DF0010E44
:10242E00D8B0000E006E005205E0CD7F030EC9132A
:10243E00000ECA13CF6BD06BCBC000F0CCC001F036
:10244E00CDC002F0CEC003F0046A056A066A076AC0
:10245E0036EC0DF0000ED8A4010E006E0052D8B46A
:10246E008AD0CEC000F0016A026A036AFF0E00161F
:10247E00000E01167E0E005E000E015A00C0CFF057
:10248E0001C0D0F0010E005E000E015A00C0CFF068
:10249E0001C0D0F0030E046E000E056E59EC0DF067
:1024AE0000C0CFF001C0D0F00A0E046E000E056E13
:1024BE0014EC0CF000C0CFF001C0D0F0800E01186B
:1024CE00026E800E025C02E1000E005C05E2010E5F
:1024DE000001CF5F000ED05B0001CF510008DD6F11
:1024EE0022EC07F0CBC004F0CCC005F0CDC006F056
:1024FE00CEC007F07EEC02F000C0D1F001C0D2F0E9
:10250E0002C0D3F003C0D4F0000E046E000E056EB0
:10251E00000E066E7F0E076ED1C000F0D2C001F025
:10252E00D3C002F0D4C003F081EC0DF0010ED8B090
:10253E00000E006E005205E0010ECF5F000ED05B64
:10254E001AD0000E046E000E056E200E066E820E60
:10255E00076ED1C000F0D2C001F0D3C002F0D4C0DB
:10256E0003F081EC0DF0000ED8B0010E006E00529B
:10257E0002E0CF4BD02B800E006E800ED019005C87
:10258E0002E1CF51000803E3010EC66F02D0CFC0A7
:10259E00C6F0CAB118D0CAA315D0800ED019006EDD
:1025AE007F0E005C02E1FC0ECF5D0BE3800ED019B6
:1025BE00006E800EC519005C02E1C451CF5D01E2D0
:1025CE0001D001D0F1D3C451C51106E0CAA304D085
:1025DE00010EC45F000EC55B000E006EC551005C9F
:1025EE0002E1C451080803E2080EC66F02D0C4C04F
:1025FE00C6F0CBC000F0CCC001F0CDC002F0CEC012
:10260E0003F0046A056A066A076A36EC0DF0000EDE
:10261E00D8A4010E006E0052D8B44BD1CFC0DDF05D
:10262E0022EC07F000C004F001C005F002C006F075
:10263E0003C007F0CBC000F0CCC001F0CDC002F05B
:10264E00CEC003F078EC0CF000C0CBF001C0CCF0A3
:10265E0002C0CDF003C0CEF00001C6510008DD6F00
:10266E0022EC07F000C004F001C005F002C006F035
:10267E0003C007F0CBC000F0CCC001F0CDC002F01B
:10268E00CEC003F078EC0CF000C0D7F001C0D8F04B
:10269E0002C0D9F003C0DAF0D7C0CBF0D8C0CCF06E
:1026AE00D9C0CDF0DAC0CEF0D7C000F0D8C001F05E
:1026BE00D9C002F0DAC003F0E8EC0DF099EC05F0A9
:1026CE0000C004F001C005F002C006F003C007F020
:1026DE00D7C000F0D8C001F0D9C002F0DAC003F0C4
:1026EE00F6EC09F0000E046E000E056E000E066E7E
:1026FE007E0E076E81EC0DF0000ED8B0010E006E4E
:10270E0000521AE0CBC000F0CCC001F0CDC002F0F8
:10271E00CEC003F0000E046E000E056E000E066EA7
:10272E007E0E076E0EEC03F000C0CBF001C0CCF0B5
:10273E0002C0CDF003C0CEF0CBC000F0CCC001F093
:10274E00CDC002F0CEC003F0E8EC0DF00001C65192
:10275E00010F096E0A6A000E0A2209C004F00AC0AF
:10276E0005F0000E0ABEFF0E066E076E04360490CC
:10277E000536063607360436049005360636073615
:10278E00040E0424F66E410E0520F76E000E062090
:10279E00F86E0900F5CF05F00900F5CF06F0090037
:1027AE00F5CF07F00900F5CF08F00850035C08E1FB
:1027BE000750025C05E10650015C02E10550005C29
:1027CE001EE30001CBC000F0CCC001F0CDC002F082
:1027DE00CEC003F0CD0E046ECC0E056E4C0E066E02
:1027EE007B0E076E7EEC02F000C0CBF001C0CCF089
:1027FE0002C0CDF003C0CEF0CF4BD02B5AD0CBC001
:10280E0000F0CCC001F0CDC002F0CEC003F0E8EC79
:10281E000DF0C6C004F0000E056E066E076E04368F
:10282E00049005360636073604360490053606360D
:10283E000736040E0424F66E410E0520F76E000EC8
:10284E000620F86E0900F5CF05F00900F5CF06F069
:10285E000900F5CF07F00900F5CF08F00850035C2A
:10286E0008E10750025C05E10650015C02E10550EB
:10287E00005C1FE20001CBC000F0CCC001F0CDC067
:10288E0002F0CEC003F0000E046E000E056E200E98
:10289E00066E820E076E7EEC02F000C0CBF001C019
:1028AE00CCF002C0CDF003C0CEF0010ECF5F000E13
:1028BE00D05B0001CAA393D0CAB791D0800E000A94
:1028CE00006E800EC519005C02E1C4510A0804E2D4
:1028DE000A0EC46F000EC56FCBC000F0CCC001F065
:1028EE00CDC002F0CEC003F0E8EC0DF000C0D1F088
:1028FE0001C0D2F002C0D3F003C0D4F0D151D21136
:10290E00D311D41142E00A0E046E000E056E066E4F
:10291E00076ED1C000F0D2C001F0D3C002F0D4C017
:10292E0003F0ACEC05F008C000F009C001F00AC0DD
:10293E0002F00BC003F0000E046E031808E1045001
:10294E00021805E10450011802E10050000A1DE1D1
:10295E00010EC45F000EC55B0A0E046E000E056EFE
:10296E00066E076ED1C000F0D2C001F0D3C002F0E7
:10297E00D4C003F0ACEC05F000C0D1F001C0D2F031
:10298E0002C0D3F003C0D4F0B9D7800EC519006EC3
:10299E00800E005C02E1C651C45D21E2C451C65DE9
:1029AE00DD6F22EC07F000C004F001C005F002C09C
:1029BE0006F003C007F0CBC000F0CCC001F0CDC0D4
:1029CE0002F0CEC003F078EC0CF000C0CBF001C0EA
:1029DE00CCF002C0CDF003C0CEF0C4C0C6F0050EE0
:1029EE000001C425006E000EC521016E0050C75FA8
:1029FE000150C85BC451C51103E1CAB701D004D060
:102A0E00010EC75F000EC85B030EC915006ECAC06B
:102A1E0001F0000E01160050011004E0010EC75F18
:102A2E00000EC85BC9A539D0C9A312D0C9A103D065
:102A3E002D0EBC6F02D02B0EBC6FB5C0E1FFB6C021
:102A4E00E2FFBCC0E6FFB54BB62BD54BD62B0CD058
:102A5E00C9A10AD0B5C0E1FFB6C0E2FF200EE66EF6
:102A6E00B54BB62BD54BD62B800E006E800EC819EB
:102A7E00005C02E1C75100080FE2B5C0E1FFB6C02D
:102A8E00E2FF300EE66EB54BB62BD54BD62B010EB4
:102A9E00C75F000EC85BE8D73AD0C9B718D0800E12
:102AAE00006E800EC819005C02E1C75100080FE2EB
:102ABE00B5C0E1FFB6C0E2FF200EE66EB54BB62BF9
:102ACE00D54BD62B010EC75F000EC85BE8D7C9A346
:102ADE0012D0C9A103D02D0EBD6F02D02B0EBD6F2B
:102AEE00B5C0E1FFB6C0E2FFBDC0E6FFB54BB62BE9
:102AFE00D54BD62B0CD0C9A10AD0B5C0E1FFB6C0BC
:102B0E00E2FF200EE66EB54BB62BD54BD62BCBC0C7
:102B1E0000F0CCC001F0CDC002F0CEC003F0E8EC66
:102B2E000DF000C0D1F001C0D2F002C0D3F003C04E
:102B3E00D4F0C6C000F0000E016E026E036E0036B9
:102B4E00009001360236033600360090013602360A
:102B5E000336040E0024F66E410E0120F76E000EB1
:102B6E000220F86E0900F5CF04F00900F5CF05F04C
:102B7E000900F5CF06F00900F5CF07F0D1C000F03F
:102B8E00D2C001F0D3C002F0D4C003F0ACEC05F01B
:102B9E00300E0026B5C0E1FFB6C0E2FF00C0E6FF72
:102BAE00B54BB62BD54BD62BC451C51103E1CAB7C5
:102BBE0001D06FD0B5C0E1FFB6C0E2FF2E0EE66EBB
:102BCE00B54BB62BD54BD62BC651C45F000EC55B8D
:102BDE00C6534DE0C607C6C000F0000E016E026E71
:102BEE00036E003600900136023603360036009032
:102BFE00013602360336040E0024F66E410E012015
:102C0E00F76E000E0220F86E0900F5CF04F00900F1
:102C1E00F5CF05F00900F5CF06F00900F5CF07F066
:102C2E00D1C000F0D2C001F0D3C002F0D4C003F086
:102C3E00ACEC05F00A0E046E000E056E066E076E05
:102C4E00ACEC05F008C000F009C001F00AC002F0BB
:102C5E000BC003F0300E0026B5C0E1FFB6C0E2FF98
:102C6E0000C0E6FFB54BB62BD54BD62BB1D7C45112
:102C7E00C5110FE0B5C0E1FFB6C0E2FF300EE66E43
:102C8E00B54BB62BD54BD62B010EC45F000EC55BD4
:102C9E00EED7C9AB0BD0B5C0E1FFB6C0E2FF450E13
:102CAE00E66EB54BB62BD54BD62B0AD0B5C0E1FF91
:102CBE00B6C0E2FF650EE66EB54BB62BD54BD62BE6
:102CCE00800ED019006E800E005C02E1000ECF5D0A
:102CDE0011E2CF510008CF6FD051000ED057B5C0C2
:102CEE00E1FFB6C0E2FF2D0EE66EB54BB62BD54B0F
:102CFE00D62B0AD0B5C0E1FFB6C0E2FF2B0EE66EB2
:102D0E00B54BB62BD54BD62B0A0E046E000E056EA8
:102D1E00CFC000F0D0C001F014EC0CF0300E002645
:102D2E00B5C0E1FFB6C0E2FF00C0E6FF0001B54B43
:102D3E00B62BD54BD62B0A0E046E000E056ECFC0E9
:102D4E0000F0D0C001F014EC0CF008C000F009C087
:102D5E0001F0300E0026B5C0E1FFB6C0E2FF00C0A4
:102D6E00E6FF0001B54BB62BD54BD62BC9A71AD013
:102D7E00800E006E800EC819005C02E1C75100087B
:102D8E0011E2B5C0E1FFB6C0E2FF200EE66EB54B14
:102D9E00B62BD54BD62B010EC75F000EC85BC751A5
:102DAE00C811EFE1FCEF0EF0CAA3F3D0800ED019DC
:102DBE00006E800E005C02E1000ECF5D0AE2010E95
:102DCE00CF5D006E000ED059016E0050C45F0150F1
:102DDE00C55BCBC000F0CCC001F0CDC002F0CEC0C0
:102DEE0003F0E8EC0DF000C0D1F001C0D2F002C04B
:102DFE00D3F003C0D4F0010EC66FC6510A0A34E0F8
:102E0E00C6C000F0000E016E026E036E003600901A
:102E1E00013602360336003600900136023603368E
:102E2E00040E0024F66E410E0120F76E000E0220F5
:102E3E00F86E0900F5CF01F00900F5CF02F0090098
:102E4E00F5CF03F00900F5CF04F00450D45D08E18E
:102E5E000350D35D05E10250D25D02E10150D15D18
:102E6E0001E202D0C62BC9D7C651C45DDB6F000E7E
:102E7E00C559DC6FDBC0C4F0DCC0C5F0D1C000F0BA
:102E8E00D2C001F0D3C002F0D4C003F099EC05F02B
:102E9E0000C004F001C005F002C006F003C007F048
:102EAE00CBC000F0CCC001F0CDC002F0CEC003F01C
:102EBE00F6EC09F000C0D7F001C0D8F002C0D9F08E
:102ECE0003C0DAF0DBC0DDF022EC07F0D7C004F06F
:102EDE00D8C005F0D9C006F0DAC007F07EEC02F0DB
:102EEE00000E046E000E056E000E066E7E0E076E50
:102EFE000EEC03F0E8EC0DF000C0D1F001C0D2F002
:102F0E0002C0D3F003C0D4F0C451C51142E00A0E82
:102F1E00046E000E056E066E076ED1C000F0D2C0B4
:102F2E0001F0D3C002F0D4C003F0ACEC05F008C041
:102F3E0000F009C001F00AC002F00BC003F0000E51
:102F4E00046E031808E10450021805E1045001183C
:102F5E0002E10050000A1DE10A0E046E000E056E1D
:102F6E00066E076ED1C000F0D2C001F0D3C002F0E1
:102F7E00D4C003F0ACEC05F000C0D1F001C0D2F02B
:102F8E0002C0D3F003C0D4F0010EC45F000EC55BC7
:102F9E00BBD7800E006E800EC519005C02E1C451D5
:102FAE000C0816E3C4C0DDF093EC0AF0CBC004F0BD
:102FBE00CCC005F0CDC006F0CEC007F00EEC03F08D
:102FCE0000C0CBF001C0CCF002C0CDF003C0CEF0FB
:102FDE00CBC000F0CCC001F0CDC002F0CEC003F0EB
:102FEE00046A056A066A076A36EC0DF0000ED8A46C
:102FFE00010E006E0052D8B477D0CBC000F0CCC01A
:10300E0001F0CDC002F0CEC003F0E8EC0DF0000EE2
:10301E00046E031808E10450021805E1045001186B
:10302E0002E10050000A60E1800E006E800ED019A1
:10303E00005C02E1CF51010857E2CFC0DDF022EC77
:10304E0007F000C004F001C005F002C006F003C096
:10305E0007F0CBC000F0CCC001F0CDC002F0CEC066
:10306E0003F078EC0CF05F0E046E700E056E090E18
:10307E00066E810E076E81EC0DF0010ED8B0000EBB
:10308E00006E005206E0090E0001CF5F000ED05B0D
:10309E0005D00001080ECF5F000ED05BCFC0DDF073
:1030AE0022EC07F000C004F001C005F002C006F0EB
:1030BE0003C007F0CBC000F0CCC001F0CDC002F0D1
:1030CE00CEC003F078EC0CF0E8EC0DF000C0D1F0BF
:1030DE0001C0D2F002C0D3F003C0D4F00001CB6B1C
:1030EE00CC6BCD6BCE6B38D0CBC000F0CCC001F02A
:1030FE00CDC002F0CEC003F0E8EC0DF000C0D1F070
:10310E0001C0D2F002C0D3F003C0D4F0D1C000F0A1
:10311E00D2C001F0D3C002F0D4C003F099EC05F098
:10312E0000C004F001C005F002C006F003C007F0B5
:10313E00CBC000F0CCC001F0CDC002F0CEC003F089
:10314E00F6EC09F000C0CBF001C0CCF002C0CDF01F
:10315E0003C0CEF0CF6BD06B010EC66FC6510A0AFC
:10316E0034E0C6C000F0000E016E026E036E003633
:10317E0000900136023603360036009001360236D4
:10318E000336040E0024F66E410E0120F76E000E7B
:10319E000220F86E0900F5CF01F00900F5CF02F01C
:1031AE000900F5CF03F00900F5CF04F00450D45D0B
:1031BE0008E10350D35D05E10250D25D02E10150FA
:1031CE00D15D01E202D0C62BC9D7C651C425006E0F
:1031DE00000EC521016ECF510026D05101220050A4
:1031EE00C75F0150C85BCAB704D0C451C51101E115
:1031FE0004D0010EC75F000EC85B030EC915006E2A
:10320E00CAC001F0000E01160050011004E0010EBC
:10321E00C75F000EC85BC9A539D0C9A312D0C9A11A
:10322E0003D02D0EBE6F02D02B0EBE6FB5C0E1FFC8
:10323E00B6C0E2FFBEC0E6FFB54BB62BD54BD62BC4
:10324E000CD0C9A10AD0B5C0E1FFB6C0E2FF200E76
:10325E00E66EB54BB62BD54BD62B800E006E800E80
:10326E00C819005C02E1C75100080FE2B5C0E1FFCA
:10327E00B6C0E2FF300EE66EB54BB62BD54BD62B55
:10328E00010EC75F000EC85BE8D73AD0C9B718D099
:10329E00800E006E800EC819005C02E1C751000856
:1032AE000FE2B5C0E1FFB6C0E2FF200EE66EB54BF1
:1032BE00B62BD54BD62B010EC75F000EC85BE8D7D9
:1032CE00C9A312D0C9A103D02D0EBF6F02D02B0EF1
:1032DE00BF6FB5C0E1FFB6C0E2FFBFC0E6FFB54BA2
:1032EE00B62BD54BD62B0CD0C9A10AD0B5C0E1FF59
:1032FE00B6C0E2FF200EE66EB54BB62BD54BD62BE5
:10330E00C6C000F0C60700524CE0C6C000F0000E6A
:10331E00016E026E036E00360090013602360336E1
:10332E0000360090013602360336040E0024F66E87
:10333E00410E0120F76E000E0220F86E0900F5CF47
:10334E0004F00900F5CF05F00900F5CF06F00900ED
:10335E00F5CF07F0D1C000F0D2C001F0D3C002F01B
:10336E00D4C003F0ACEC05F00A0E046E000E056E30
:10337E00066E076EACEC05F008C000F009C001F057
:10338E000AC002F00BC003F0300E0026B5C0E1FFFC
:10339E00B6C0E2FF00C0E6FFB54BB62BD54BD62B21
:1033AE00AFD7800E006E800ED019005C02E1CF51B7
:1033BE0000080FE2B5C0E1FFB6C0E2FF300EE66EC8
:1033CE00B54BB62BD54BD62B010ECF5F000ED05B77
:1033DE00E8D7800E000A006E800EC519005C02E16F
:1033EE00C451080803E2080EC66F02D0C4C0C6F06E
:1033FE00C651C45F000EC55BC65303E1CAB701D008
:10340E000AD0B5C0E1FFB6C0E2FF2E0EE66EB54B98
:10341E00B62BD54BD62BC6C0DDF022EC07F0CBC0B9
:10342E0004F0CCC005F0CDC006F0CEC007F07EECA7
:10343E0002F0FAEC09F000C0D1F001C0D2F002C0E7
:10344E00D3F003C0D4F0C6534DE0C607C6C000F09B
:10345E00000E016E026E036E0036009001360236CB
:10346E00033600360090013602360336040E002471
:10347E00F66E410E0120F76E000E0220F86E090066
:10348E00F5CF04F00900F5CF05F00900F5CF06F0F1
:10349E000900F5CF07F0D1C000F0D2C001F0D3C0C3
:1034AE0002F0D4C003F0ACEC05F00A0E046E000E70
:1034BE00056E066E076EACEC05F008C000F009C094
:1034CE0001F00AC002F00BC003F0300E0026B5C0AA
:1034DE00E1FFB6C0E2FF00C0E6FFB54BB62BD54B01
:1034EE00D62BB1D7C451C5110FE0B5C0E1FFB6C0A0
:1034FE00E2FF300EE66EB54BB62BD54BD62B010E3A
:10350E00C45F000EC55BEED7C9A71AD0800E006E41
:10351E00800EC819005C02E1C751000811E2B5C067
:10352E00E1FFB6C0E2FF200EE66EB54BB62BD54BD3
:10353E00D62B010EC75F000EC85BC751C811EFE155
:10354E00FCEF0EF0C00EC915016ECAC002F0000EDF
:10355E000216000E021802E1000E0118D8A480D047
:10356E00C9A927D0BAC0E9FFBBC0EAFFEECF00F071
:10357E00EECF01F000C0E9FF01C0EAFFEECFD1F0BF
:10358E00EECFD2F0EECFD3F0EECFD4F0BAC0E9FF4B
:10359E00BBC0EAFF040EEE24006E000EEE20016E9C
:1035AE00BAC0E1FFBBC0E2FF00C0E6FF01C0E6FF0C
:1035BE002FD0BAC0E9FFBBC0EAFFEECF00F0EECFCE
:1035CE0001F000C0E9FF01C0EAFFEECF00F0EECF40
:1035DE0001F0000E01BEFF0E026E036E00C0D1F0B0
:1035EE0001C0D2F002C0D3F003C0D4F0BAC0E9FFDC
:1035FE00BBC0EAFF020EEE24006E000EEE20016E3E
:10360E00BAC0E1FFBBC0E2FF00C0E6FF01C0E6FFAB
:10361E00800ED419006E800E005C08E1000ED35DA2
:10362E0005E1000ED25D02E1000ED15D18E2030E3F
:10363E00C913000ECA13006A016A026A036AD151E5
:10364E00005ED251015AD351025AD451035A00C0CE
:10365E00D1F001C0D2F002C0D3F003C0D4F04ED0EE
:10366E00C9A927D0BAC0E9FFBBC0EAFFEECF00F070
:10367E00EECF01F000C0E9FF01C0EAFFEECFD1F0BE
:10368E00EECFD2F0EECFD3F0EECFD4F0BAC0E9FF4A
:10369E00BBC0EAFF040EEE24006E000EEE20016E9B
:1036AE00BAC0E1FFBBC0E2FF00C0E6FF01C0E6FF0B
:1036BE0025D0BAC0E9FFBBC0EAFFEECF00F0EECFD7
:1036CE0001F000C0E9FF01C0EAFFEECFD1F0EECF6E
:1036DE00D2F0000ED36FD46FBAC0E9FFBBC0EAFFC1
:1036EE00020EEE24006E000EEE20016EBAC0E1FF57
:1036FE00BBC0E2FF00C0E6FF01C0E6FF000EC51929
:10370E0002E1000EC4190FE1000E006ED41908E19B
:10371E000050D31905E10050D21902E1D151000A2F
:10372E0002E1C44BC52BC00EC915006E00C005F0DA
:10373E00AED0010EC66FC6510A0A34E0C6C000F004
:10374E00000E016E026E036E0036009001360236D8
:10375E00033600360090013602360336040E00247E
:10376E00F66E410E0120F76E000E0220F86E090073
:10377E00F5CF01F00900F5CF02F00900F5CF03F007
:10378E000900F5CF04F00450D45D08E10350D35D79
:10379E0005E10250D25D02E10150D15D01E202D09D
:1037AE00C62BC9D782D0010EC66FC651080A34E0A7
:1037BE00C6C000F0000E016E026E036E0036009061
:1037CE0001360236033600360090013602360336D5
:1037DE002C0E0024F66E410E0120F76E000E022014
:1037EE00F86E0900F5CF01F00900F5CF02F00900DF
:1037FE00F5CF03F00900F5CF04F00450D45D08E1D5
:10380E000350D35D05E10250D25D02E10150D15D5E
:10381E0001E202D0C62BC9D748D0010EC66FC651E1
:10382E000C0A34E0C6C000F0000E016E026E036E8C
:10383E00003600900136023603360036009001360F
:10384E0002360336D40E0024F66E400E0120F76EBB
:10385E00000E0220F86E0900F5CF01F00900F5CF39
:10386E0002F00900F5CF03F00900F5CF04F0045083
:10387E00D45D08E10350D35D05E10250D25D02E153
:10388E000150D15D01E202D0C62BC9D70ED0055032
:10389E00000AD8B44ED70550C00AD8B44AD705503E
:1038AE00800A81E00550400AB8E0800E006E800E5E
:1038BE00C519005C02E1C451C65D03E2C4C0C6F086
:1038CE000DD0800EC519006E800E005C02E1C6514F
:1038DE00C45D04E2C6C0C4F0000EC56FC751C81166
:1038EE000EE0030EC915006ECAC001F0000E0116DF
:1038FE000050011004E0010EC75F000EC85B800E81
:10390E00C519006E800EC819005C02E1C751C45D76
:10391E0005E2C451C75FC551C85B02D0C76BC86B07
:10392E00C40EC915016ECA51080B026E0250080A68
:10393E0002E1400E011808E1C751C81104E0010E62
:10394E00C75F000EC85B1CD0C00EC915016ECA51F0
:10395E00080B026E0250080A02E1800E011810E1F7
:10396E00800E006E800EC819005C02E1C75102087D
:10397E0005E2020EC75F000EC85B02D0C76BC86BB4
:10398E00C9A55DD0C9A312D0C9A103D02D0EC06F99
:10399E0002D02B0EC06FB5C0E1FFB6C0E2FFC0C0B3
:1039AE00E6FFB54BB62BD54BD62B34D0C9A10BD0D9
:1039BE00B5C0E1FFB6C0E2FF200EE66EB54BB62BEA
:1039CE00D54BD62B27D0C00EC915016ECA51080B88
:1039DE00026E0250080A02E1800E01181BE1B5C00A
:1039EE00E1FFB6C0E2FF300EE66EB54BB62BD54BFF
:1039FE00D62BC9AB03D0580EC16F02D0780EC16F53
:103A0E00B5C0E1FFB6C0E2FFC1C0E6FFB54BB62BB5
:103A1E00D54BD62BC751C81111E0B5C0E1FFB6C0CA
:103A2E00E2FF300EE66EB54BB62BD54BD62B010E04
:103A3E00C75F000EC85BC751C811EFE174D0C75104
:103A4E00C81113E0C9B711D0B5C0E1FFB6C0E2FF8F
:103A5E00200EE66EB54BB62BD54BD62B010EC75F9F
:103A6E00000EC85BC751C811EFE1C9A312D0C9A19E
:103A7E0003D02D0EC26F02D02B0EC26FB5C0E1FF68
:103A8E00B6C0E2FFC2C0E6FFB54BB62BD54BD62B68
:103A9E000CD0C9A10AD0B5C0E1FFB6C0E2FF200E1E
:103AAE00E66EB54BB62BD54BD62BC00EC915016E97
:103ABE00CA51080B026E0250080A02E1400E0118AC
:103ACE000BE1B5C0E1FFB6C0E2FF300EE66EB54BBE
:103ADE00B62BD54BD62B27D0C00EC915016ECA51A9
:103AEE00080B026E0250080A02E1800E01181BE15B
:103AFE00B5C0E1FFB6C0E2FF300EE66EB54BB62B99
:103B0E00D54BD62BC9AB03D0580EC36F02D0780E4F
:103B1E00C36FB5C0E1FFB6C0E2FFC3C0E6FFB54B51
:103B2E00B62BD54BD62B800E006E800EC519005CC1
:103B3E0002E1C451C65D0BE2B5C0E1FFB6C0E2FFC3
:103B4E00300EE66EB54BB62BD54BD62BECD7C4C08C
:103B5E0000F0C5C001F0010EC45F000EC55B005041
:103B6E000110D8B42AD1C00EC915006E00C0D7F00E
:103B7E000AD1C4C000F0C5C001F0000EC5BFFF0ED3
:103B8E00026E036E003600900136023603360036A2
:103B9E000090013602360336040E0024F66E410EF6
:103BAE000120F76E000E0220F86E0900F5CF04F02A
:103BBE000900F5CF05F00900F5CF06F00900F5CFA5
:103BCE0007F0D1C000F0D2C001F0D3C002F0D4C0D3
:103BDE0003F0ACEC05F00A0E046E000E056E066ED8
:103BEE00076EACEC05F008C000F009C001F00AC089
:103BFE0002F00BC003F0300E0024C66FD3D0C9AB59
:103C0E0045D0C4C000F0C5C001F0000EC5BFFF0E08
:103C1E00026E036E00360090013602360336003611
:103C2E0000900136023603362C0E0024F66E410E3D
:103C3E000120F76E000E0220F86E0900F5CF04F099
:103C4E000900F5CF05F00900F5CF06F00900F5CF14
:103C5E0007F0D1C000F0D2C001F0D3C002F0D4C042
:103C6E0003F0ACEC05F00F0E0016000E0116021656
:103C7E0003165D0E0024F66E410E0120F76E000E47
:103C8E000220F86E0900F5CFC6F044D0C4C000F093
:103C9E00C5C001F0000EC5BFFF0E026E036E0036EA
:103CAE000090013602360336003600900136023699
:103CBE0003362C0E0024F66E410E0120F76E000E18
:103CCE000220F86E0900F5CF04F00900F5CF05F0DB
:103CDE000900F5CF06F00900F5CF07F0D1C000F0CE
:103CEE00D2C001F0D3C002F0D4C003F0ACEC05F0AA
:103CFE000F0E0016000E0116021603164C0E0024AF
:103D0E00F66E410E0120F76E000E0220F86E0900CD
:103D1E00F5CFC6F047D0C4C000F0C5C001F0000E0C
:103D2E00C5BFFF0E026E036E0036009001360236DE
:103D3E00033600360090013602360336D40E0024C8
:103D4E00F66E400E0120F76E000E0220F86E09008E
:103D5E00F5CF04F00900F5CF05F00900F5CF06F018
:103D6E000900F5CF07F0D1C000F0D2C001F0D3C0EA
:103D7E0002F0D4C003F0ACEC05F0070E0014C66FD1
:103D8E00300EC6270FD0D751000AD8B4F2D6D7516D
:103D9E00C00AD8B4EED6D751800AD8B430D7D7518E
:103DAE00400AB9E0B5C0E1FFB6C0E2FFC6C0E6FF0B
:103DBE00B54BB62BD54BD62BCAD6C9A71AD0800E6B
:103DCE00006E800EC819005C02E1C751000811E2B6
:103DDE00B5C0E1FFB6C0E2FF200EE66EB54BB62BC6
:103DEE00D54BD62B010EC75F000EC85BC751C8114D
:103DFE00EFE1FCEF0EF0D5C000F0D6C001F01200DE
:103E0E00016A01500A080BE3910EE16E000EE26E9C
:103E1E000150E126D8B0E22AE66A012AF2D7120052
:103E2E00E00E0001896F1D0E8A6FB50E8B6F000EAE
:103E3E008C6FE00E8D6F3E0E8E6F000E8F6F000E2C
:103E4E00906FFF0E816FFF0E826F000E836F000E5C
:103E5E00846FFF0E856FFF0E866F000E876F000E4C
:103E6E00886FAC8A900EAB6E948E949C9EAA03D0F3
:083E7E00AECF00F0FBD71200EB
:103E86000900F5CFE6FF0006FBE10106F9E11200A5
:103E9600AF0E0001B36F000EB46FAAC0B5F0ABC091
:103EA600B6F0ACC0B7F0ADC0B8F0AEC0B9F0B30E66
:103EB600BA6F000EBB6FF7EC0EF000C0B1F001C098
:103EC600B2F00050AA25E16E0150AB21E26EE66A1F
:0A3ED600B1C000F0B2C001F012000C
:103EE000AECF01F0ABA202D0AB98AB8801C000F01E
:023EF0001200BE
:103EF200000E0001AB1902E1000EAA1937E0AAC0B8
:103F0200E9FFABC0EAFFEE5231E0ACC0B5F0ADC0A4
:103F1200B6F084EC0EF000C0B9F0AAC0B5F0ABC0A8
:103F2200B6F0ACC0B7F0ADC0B8F0A1EC0EF0000E28
:103F3200011802E1000E001805E1AAC000F0ABC0B2
:103F420001F016D0010E0001AA25B56F000EAB21BB
:103F5200B66FACC0E9FFADC0EAFFEECFB7F0D2EC6E
:103F62000EF000C0AAF001C0ABF0C2D7006A016A2D
:023F720012003B
:103F74000001AD6BAAC0E9FFABC0EAFFEECFACF025
:103F8400AC51000A0FE0ACC0B5F0F0EC0EF000014B
:103F9400AD2BAD51AA25E96E000EAB21EA6EEECF32
:063FA400ACF0EED71200A4
:103FAA00BAEC20F00F0EC112070EB412816A938088
:103FBA009382836A8C6A9580846A8D6A96929690B7
:103FCA00F292F288F090F086F18CF18A9E9A9D8A9C
:103FDA00F28EF28CB886020EB06E080EAF6EAC840A
:103FEA0021DF030E0B6E8A0E0C6E550E0D6E0D2E12
:103FFA00FED70C2EFCD70B2EFAD700000000FFD7F5
:02400A00FFD7DE
:1041740010EE1EF0600E006E010E016E0C0EF66E57
:0E418400400EF76E000EF86E43EC1FF01200B6
:01400C0000B3
:01400D004072
:01400E00268B
:06400F006C655F6F6E009E
:09401500404C6C655F6F6E2600E3
:01401E0000A1
:08401F00404C6F66663226007A
:07402700404C6F6E322600D1
:02402E00000090
:064030006C655F6F660085
:09403600404C6C656F66322600F7
:07403F00286E756C6C29006E
:08404600404572726F72260002
:06404E006C656F66320094
:09405400404C6C655F6F662600AC
:06405D006C656F6E32007D
:09406300404C6C656F6E322600C2
:10406C000000007F000020820000488500007A8854
:10407C0000401C8C0050438F00247492809618963C
:10408C0020BC3E99286B6E9CF90215A0EC782DC1D2
:04409C00CAF249E239
:1040A0000000007FCDCC4C7B0AD723786F120375BC
:1040B00017B75171ACC5276EBD37066B95BF5667F4
:1040C00077CC2B645F700961FFE65B5D08E53C3CE3
:0440D0006042221B0D
:1040D4000100000008000000400000000002000091
:1040E4000010000000800000000004000000200018
:1040F4000000000100000008000000400000000073
:10410400010000000A00000064000000E803000051
:1041140010270000A086010040420F0080969800FE
:0841240000E1F50500CA9A3B19
:10412C000100000010000000000100000010000061
:10413C000000010000001000000000010000001051
:10414C003031323334353637383961626364656601
:01415C000062
:10415D0030313233343536373839414243444546B0
:01416D000051
:06416E0040532564260009
:020000040030CA
:0E000000240C1F1EFF8381FF0FC00FE00F4076
:00000001FF
